{
  "transactions": [
    {
      "hash": "0x2fa276b336eaec71f307f53f86c4c8b6cd7b0b1d558e5c271ef2400b475d79d1",
      "transactionType": "CALL",
      "contractName": null,
      "contractAddress": "0x30f358cb200bc849f220ee0caa9a1b2f44c0a7d6",
      "function": "setChainProfile(uint256,uint8)",
      "arguments": [
        "1301",
        "1"
      ],
      "transaction": {
        "from": "0x4b992f2fbf714c0fcbb23bac5130ace48cad00cd",
        "to": "0x30f358cb200bc849f220ee0caa9a1b2f44c0a7d6",
        "gas": "0xae22",
        "value": "0x0",
        "input": "0x9342178f00000000000000000000000000000000000000000000000000000000000005150000000000000000000000000000000000000000000000000000000000000001",
        "nonce": "0x2ee",
        "chainId": "0x515"
      },
      "additionalContracts": [],
      "isFixedGasLimit": false
    },
    {
      "hash": "0x00ee6b2bfcf531fa6414091f09387ce9aa8e3df4a6c314397ee6e6ddbe2ddee5",
      "transactionType": "CALL",
      "contractName": null,
      "contractAddress": "0x30f358cb200bc849f220ee0caa9a1b2f44c0a7d6",
      "function": "setPoolPolicy(uint256,bytes32,(bool,uint128,uint24,uint32,uint16,bool,bool,bool,uint24,uint64))",
      "arguments": [
        "1301",
        "0x3c11539b2cfd09845c329a5208ce621bb3d88551027cbb62efe4daeb8bf88fc8",
        "(true, 2000000000000000000, 2500, 0, 25, false, false, false, 2500, 5000000000)"
      ],
      "transaction": {
        "from": "0x4b992f2fbf714c0fcbb23bac5130ace48cad00cd",
        "to": "0x30f358cb200bc849f220ee0caa9a1b2f44c0a7d6",
        "gas": "0xfabc",
        "value": "0x0",
        "input": "0xd153d3cd00000000000000000000000000000000000000000000000000000000000005153c11539b2cfd09845c329a5208ce621bb3d88551027cbb62efe4daeb8bf88fc800000000000000000000000000000000000000000000000000000000000000010000000000000000000000000000000000000000000000001bc16d674ec8000000000000000000000000000000000000000000000000000000000000000009c40000000000000000000000000000000000000000000000000000000000000000000000000000000000000000000000000000000000000000000000000000001900000000000000000000000000000000000000000000000000000000000000000000000000000000000000000000000000000000000000000000000000000000000000000000000000000000000000000000000000000000000000000000000000000000000000000000000000000000000000000000000000000000000009c4000000000000000000000000000000000000000000000000000000012a05f200",
        "nonce": "0x2ef",
        "chainId": "0x515"
      },
      "additionalContracts": [],
      "isFixedGasLimit": false
    }
  ],
  "receipts": [
    {
      "status": "0x1",
      "cumulativeGasUsed": "0x7419f",
      "logs": [
        {
          "address": "0x30f358cb200bc849f220ee0caa9a1b2f44c0a7d6",
          "topics": [
            "0xbe23aa01ab7f1a0e9a5274dfb4eda009d0ac96e8b8a1f3923b19df92db27dd00",
            "0x0000000000000000000000000000000000000000000000000000000000000515"
          ],
          "data": "0x0000000000000000000000000000000000000000000000000000000000000001",
          "blockHash": "0xfaf4cb636ea7dc80f6b07742a7cbd9abaadeed835342a3a922fec84e66259a16",
          "blockNumber": "0x2c3ef1a",
          "blockTimestamp": "0x69b19c66",
          "transactionHash": "0x2fa276b336eaec71f307f53f86c4c8b6cd7b0b1d558e5c271ef2400b475d79d1",
          "transactionIndex": "0x6",
          "logIndex": "0x4",
          "removed": false
        }
      ],
      "logsBloom": "0x00000000000000000000000000000000000000000100000000000000000000000000000000000000000000001000000000000000000000000000000000000000000000000000000000000000000000000000000000000000000200000000000000000000100000000000008000000000000020000000000000000000000000000800000000400000000000000080000000000000000000000000000000000000000000000000000000000000000000000000000000000000000000000000000000000000000000000000000000000000000000000000000000000000000000000000000000000000000000000000000000000000000000000000000000000000",
      "type": "0x2",
      "transactionHash": "0x2fa276b336eaec71f307f53f86c4c8b6cd7b0b1d558e5c271ef2400b475d79d1",
      "transactionIndex": "0x6",
      "blockHash": "0xfaf4cb636ea7dc80f6b07742a7cbd9abaadeed835342a3a922fec84e66259a16",
      "blockNumber": "0x2c3ef1a",
      "gasUsed": "0x7711",
      "effectiveGasPrice": "0x7a121",
      "blobGasUsed": "0x9c40",
      "from": "0x4b992f2fbf714c0fcbb23bac5130ace48cad00cd",
      "to": "0x30f358cb200bc849f220ee0caa9a1b2f44c0a7d6",
      "contractAddress": null,
      "daFootprintGasScalar": "0x190",
      "l1BaseFeeScalar": "0x7d0",
      "l1BlobBaseFee": "0x1",
      "l1BlobBaseFeeScalar": "0xdbba0",
      "l1Fee": "0x7a",
      "l1GasPrice": "0xa",
      "l1GasUsed": "0x640"
    },
    {
      "status": "0x1",
      "cumulativeGasUsed": "0x7ed11",
      "logs": [
        {
          "address": "0x30f358cb200bc849f220ee0caa9a1b2f44c0a7d6",
          "topics": [
            "0xa9b54d9d87badf20ec514053367be571dfa44e060aa1042295c3803d35faf113",
            "0x0000000000000000000000000000000000000000000000000000000000000515",
            "0x3c11539b2cfd09845c329a5208ce621bb3d88551027cbb62efe4daeb8bf88fc8"
          ],
          "data": "0x3c14270f5ddfcf15b2548bca69a6c8d97ddb1e2373a72e44a5bc85d6b305c4eb",
          "blockHash": "0xfaf4cb636ea7dc80f6b07742a7cbd9abaadeed835342a3a922fec84e66259a16",
          "blockNumber": "0x2c3ef1a",
          "blockTimestamp": "0x69b19c66",
          "transactionHash": "0x00ee6b2bfcf531fa6414091f09387ce9aa8e3df4a6c314397ee6e6ddbe2ddee5",
          "transactionIndex": "0x7",
          "logIndex": "0x5",
          "removed": false
        }
      ],
      "logsBloom": "0x00000000000008000000000000000000000000000100000000004000000000000000000040000000000000000000000000000000000000000000000000000000000000000000000000000000000000000000000000000000000200000000000000000000000000000000008000000000000020000000000000000000000000000800000000000000000000000080000000000000000000000000000000000000000000000000000000000000000000000000000000000000080000000000000000000000000000000000000000000000000000000000000000000000000000000000000000000000000000000000400000000000100000000000000000000000",
      "type": "0x2",
      "transactionHash": "0x00ee6b2bfcf531fa6414091f09387ce9aa8e3df4a6c314397ee6e6ddbe2ddee5",
      "transactionIndex": "0x7",
      "blockHash": "0xfaf4cb636ea7dc80f6b07742a7cbd9abaadeed835342a3a922fec84e66259a16",
      "blockNumber": "0x2c3ef1a",
      "gasUsed": "0xab72",
      "effectiveGasPrice": "0x7a121",
      "blobGasUsed": "0xc990",
      "from": "0x4b992f2fbf714c0fcbb23bac5130ace48cad00cd",
      "to": "0x30f358cb200bc849f220ee0caa9a1b2f44c0a7d6",
      "contractAddress": null,
      "daFootprintGasScalar": "0x190",
      "l1BaseFeeScalar": "0x7d0",
      "l1BlobBaseFee": "0x1",
      "l1BlobBaseFeeScalar": "0xdbba0",
      "l1Fee": "0x9e",
      "l1GasPrice": "0xa",
      "l1GasUsed": "0x81b"
    }
  ],
  "libraries": [],
  "pending": [],
  "returns": {},
  "timestamp": 1773247589646,
  "chain": 1301,
  "commit": "70335b4"
}