{
  "transactions": [
    {
      "hash": null,
      "transactionType": "CALL",
      "contractName": null,
      "contractAddress": "0x30f358cb200bc849f220ee0caa9a1b2f44c0a7d6",
      "function": "setChainProfile(uint256,uint8)",
      "arguments": [
        "1301",
        "1"
      ],
      "transaction": {
        "from": "0x4b992f2fbf714c0fcbb23bac5130ace48cad00cd",
        "to": "0x30f358cb200bc849f220ee0caa9a1b2f44c0a7d6",
        "gas": "0xae22",
        "value": "0x0",
        "input": "0x9342178f00000000000000000000000000000000000000000000000000000000000005150000000000000000000000000000000000000000000000000000000000000001",
        "nonce": "0x2ea",
        "chainId": "0x515"
      },
      "additionalContracts": [],
      "isFixedGasLimit": false
    },
    {
      "hash": null,
      "transactionType": "CALL",
      "contractName": null,
      "contractAddress": "0x30f358cb200bc849f220ee0caa9a1b2f44c0a7d6",
      "function": "setPoolPolicy(uint256,bytes32,(bool,uint128,uint24,uint32,uint16,bool,bool,bool,uint24,uint64))",
      "arguments": [
        "1301",
        "0x3c11539b2cfd09845c329a5208ce621bb3d88551027cbb62efe4daeb8bf88fc8",
        "(true, 2000000000000000000, 2500, 0, 25, false, false, false, 2500, 5000000000)"
      ],
      "transaction": {
        "from": "0x4b992f2fbf714c0fcbb23bac5130ace48cad00cd",
        "to": "0x30f358cb200bc849f220ee0caa9a1b2f44c0a7d6",
        "gas": "0xfabc",
        "value": "0x0",
        "input": "0xd153d3cd00000000000000000000000000000000000000000000000000000000000005153c11539b2cfd09845c329a5208ce621bb3d88551027cbb62efe4daeb8bf88fc800000000000000000000000000000000000000000000000000000000000000010000000000000000000000000000000000000000000000001bc16d674ec8000000000000000000000000000000000000000000000000000000000000000009c40000000000000000000000000000000000000000000000000000000000000000000000000000000000000000000000000000000000000000000000000000001900000000000000000000000000000000000000000000000000000000000000000000000000000000000000000000000000000000000000000000000000000000000000000000000000000000000000000000000000000000000000000000000000000000000000000000000000000000000000000000000000000000000009c4000000000000000000000000000000000000000000000000000000012a05f200",
        "nonce": "0x2eb",
        "chainId": "0x515"
      },
      "additionalContracts": [],
      "isFixedGasLimit": false
    }
  ],
  "receipts": [],
  "libraries": [],
  "pending": [],
  "returns": {},
  "timestamp": 1773247526455,
  "chain": 1301,
  "commit": "70335b4"
}