{
  "transactions": [
    {
      "hash": "0x3d8ff503c01241fbcb009cc61603d3386e2639d18374c060e05d3a89a3acf1e1",
      "transactionType": "CALL",
      "contractName": null,
      "contractAddress": "0x30f358cb200bc849f220ee0caa9a1b2f44c0a7d6",
      "function": "setChainProfile(uint256,uint8)",
      "arguments": [
        "1301",
        "3"
      ],
      "transaction": {
        "from": "0x4b992f2fbf714c0fcbb23bac5130ace48cad00cd",
        "to": "0x30f358cb200bc849f220ee0caa9a1b2f44c0a7d6",
        "gas": "0xae22",
        "value": "0x0",
        "input": "0x9342178f00000000000000000000000000000000000000000000000000000000000005150000000000000000000000000000000000000000000000000000000000000003",
        "nonce": "0x2f2",
        "chainId": "0x515"
      },
      "additionalContracts": [],
      "isFixedGasLimit": false
    },
    {
      "hash": "0xce3bb11fce50b416d1266ddd4968d5bb827aaa8bbcc82850050671ea7b325635",
      "transactionType": "CALL",
      "contractName": null,
      "contractAddress": "0x30f358cb200bc849f220ee0caa9a1b2f44c0a7d6",
      "function": "setPoolPolicy(uint256,bytes32,(bool,uint128,uint24,uint32,uint16,bool,bool,bool,uint24,uint64))",
      "arguments": [
        "1301",
        "0x3c11539b2cfd09845c329a5208ce621bb3d88551027cbb62efe4daeb8bf88fc8",
        "(true, 1000000000000000000, 1500, 1, 12, true, false, true, 3500, 1000000000)"
      ],
      "transaction": {
        "from": "0x4b992f2fbf714c0fcbb23bac5130ace48cad00cd",
        "to": "0x30f358cb200bc849f220ee0caa9a1b2f44c0a7d6",
        "gas": "0xfadf",
        "value": "0x0",
        "input": "0xd153d3cd00000000000000000000000000000000000000000000000000000000000005153c11539b2cfd09845c329a5208ce621bb3d88551027cbb62efe4daeb8bf88fc800000000000000000000000000000000000000000000000000000000000000010000000000000000000000000000000000000000000000000de0b6b3a764000000000000000000000000000000000000000000000000000000000000000005dc0000000000000000000000000000000000000000000000000000000000000001000000000000000000000000000000000000000000000000000000000000000c0000000000000000000000000000000000000000000000000000000000000001000000000000000000000000000000000000000000000000000000000000000000000000000000000000000000000000000000000000000000000000000000010000000000000000000000000000000000000000000000000000000000000dac000000000000000000000000000000000000000000000000000000003b9aca00",
        "nonce": "0x2f3",
        "chainId": "0x515"
      },
      "additionalContracts": [],
      "isFixedGasLimit": false
    }
  ],
  "receipts": [
    {
      "status": "0x1",
      "cumulativeGasUsed": "0x98ea9",
      "logs": [
        {
          "address": "0x30f358cb200bc849f220ee0caa9a1b2f44c0a7d6",
          "topics": [
            "0xbe23aa01ab7f1a0e9a5274dfb4eda009d0ac96e8b8a1f3923b19df92db27dd00",
            "0x0000000000000000000000000000000000000000000000000000000000000515"
          ],
          "data": "0x0000000000000000000000000000000000000000000000000000000000000003",
          "blockHash": "0x05002616b6ea3fd6b491f4272a21dd83f2b0854c90b965eb872a91dada066aca",
          "blockNumber": "0x2c3ef37",
          "blockTimestamp": "0x69b19c83",
          "transactionHash": "0x3d8ff503c01241fbcb009cc61603d3386e2639d18374c060e05d3a89a3acf1e1",
          "transactionIndex": "0x7",
          "logIndex": "0x8",
          "removed": false
        }
      ],
      "logsBloom": "0x00000000000000000000000000000000000000000100000000000000000000000000000000000000000000001000000000000000000000000000000000000000000000000000000000000000000000000000000000000000000200000000000000000000100000000000008000000000000020000000000000000000000000000800000000400000000000000080000000000000000000000000000000000000000000000000000000000000000000000000000000000000000000000000000000000000000000000000000000000000000000000000000000000000000000000000000000000000000000000000000000000000000000000000000000000000",
      "type": "0x2",
      "transactionHash": "0x3d8ff503c01241fbcb009cc61603d3386e2639d18374c060e05d3a89a3acf1e1",
      "transactionIndex": "0x7",
      "blockHash": "0x05002616b6ea3fd6b491f4272a21dd83f2b0854c90b965eb872a91dada066aca",
      "blockNumber": "0x2c3ef37",
      "gasUsed": "0x7711",
      "effectiveGasPrice": "0x7a121",
      "blobGasUsed": "0x9c40",
      "from": "0x4b992f2fbf714c0fcbb23bac5130ace48cad00cd",
      "to": "0x30f358cb200bc849f220ee0caa9a1b2f44c0a7d6",
      "contractAddress": null,
      "daFootprintGasScalar": "0x190",
      "l1BaseFeeScalar": "0x7d0",
      "l1BlobBaseFee": "0x1",
      "l1BlobBaseFeeScalar": "0xdbba0",
      "l1Fee": "0x7a",
      "l1GasPrice": "0xa",
      "l1GasUsed": "0x640"
    },
    {
      "status": "0x1",
      "cumulativeGasUsed": "0x32576",
      "logs": [
        {
          "address": "0x30f358cb200bc849f220ee0caa9a1b2f44c0a7d6",
          "topics": [
            "0xa9b54d9d87badf20ec514053367be571dfa44e060aa1042295c3803d35faf113",
            "0x0000000000000000000000000000000000000000000000000000000000000515",
            "0x3c11539b2cfd09845c329a5208ce621bb3d88551027cbb62efe4daeb8bf88fc8"
          ],
          "data": "0xc3cccce9ae3a1e544149bcef2627001b18ea3f11c3c0e44b5408b933c76cf7cf",
          "blockHash": "0x8c832ebb2109e901eec1fcbc7a0f0baf841c03024ffbd943bb161ff9e25c36d8",
          "blockNumber": "0x2c3ef38",
          "blockTimestamp": "0x69b19c84",
          "transactionHash": "0xce3bb11fce50b416d1266ddd4968d5bb827aaa8bbcc82850050671ea7b325635",
          "transactionIndex": "0x3",
          "logIndex": "0x1",
          "removed": false
        }
      ],
      "logsBloom": "0x00000000000008000000000000000000000000000100000000004000000000000000000040000000000000000000000000000000000000000000000000000000000000000000000000000000000000000000000000000000000200000000000000000000000000000000008000000000000020000000000000000000000000000800000000000000000000000080000000000000000000000000000000000000000000000000000000000000000000000000000000000000080000000000000000000000000000000000000000000000000000000000000000000000000000000000000000000000000000000000400000000000100000000000000000000000",
      "type": "0x2",
      "transactionHash": "0xce3bb11fce50b416d1266ddd4968d5bb827aaa8bbcc82850050671ea7b325635",
      "transactionIndex": "0x3",
      "blockHash": "0x8c832ebb2109e901eec1fcbc7a0f0baf841c03024ffbd943bb161ff9e25c36d8",
      "blockNumber": "0x2c3ef38",
      "gasUsed": "0xab8a",
      "effectiveGasPrice": "0x7a121",
      "blobGasUsed": "0xe290",
      "from": "0x4b992f2fbf714c0fcbb23bac5130ace48cad00cd",
      "to": "0x30f358cb200bc849f220ee0caa9a1b2f44c0a7d6",
      "contractAddress": null,
      "daFootprintGasScalar": "0x190",
      "l1BaseFeeScalar": "0x7d0",
      "l1BlobBaseFee": "0x1",
      "l1BlobBaseFeeScalar": "0xdbba0",
      "l1Fee": "0xb1",
      "l1GasPrice": "0xa",
      "l1GasUsed": "0x91a"
    }
  ],
  "libraries": [],
  "pending": [],
  "returns": {},
  "timestamp": 1773247620695,
  "chain": 1301,
  "commit": "70335b4"
}