{
  "transactions": [
    {
      "hash": "0xfbc41d429004974a8f352127acce42c107ebbae42a42abf553694dbfa6a16806",
      "transactionType": "CALL",
      "contractName": null,
      "contractAddress": "0x30f358cb200bc849f220ee0caa9a1b2f44c0a7d6",
      "function": "setChainProfile(uint256,uint8)",
      "arguments": [
        "1301",
        "2"
      ],
      "transaction": {
        "from": "0x4b992f2fbf714c0fcbb23bac5130ace48cad00cd",
        "to": "0x30f358cb200bc849f220ee0caa9a1b2f44c0a7d6",
        "gas": "0xae22",
        "value": "0x0",
        "input": "0x9342178f00000000000000000000000000000000000000000000000000000000000005150000000000000000000000000000000000000000000000000000000000000002",
        "nonce": "0x20e",
        "chainId": "0x515"
      },
      "additionalContracts": [],
      "isFixedGasLimit": false
    },
    {
      "hash": "0x81a51c0ad44d502991ac181ff71718a1f2a367b7f15eac8a69b86716fa8b43ec",
      "transactionType": "CALL",
      "contractName": null,
      "contractAddress": "0x30f358cb200bc849f220ee0caa9a1b2f44c0a7d6",
      "function": "setPoolPolicy(uint256,bytes32,(bool,uint128,uint24,uint32,uint16,bool,bool,bool,uint24,uint64))",
      "arguments": [
        "1301",
        "0x3c11539b2cfd09845c329a5208ce621bb3d88551027cbb62efe4daeb8bf88fc8",
        "(true, 500000000000000000, 800, 2, 8, false, false, true, 3000, 2000000000)"
      ],
      "transaction": {
        "from": "0x4b992f2fbf714c0fcbb23bac5130ace48cad00cd",
        "to": "0x30f358cb200bc849f220ee0caa9a1b2f44c0a7d6",
        "gas": "0xecde",
        "value": "0x0",
        "input": "0xd153d3cd00000000000000000000000000000000000000000000000000000000000005153c11539b2cfd09845c329a5208ce621bb3d88551027cbb62efe4daeb8bf88fc8000000000000000000000000000000000000000000000000000000000000000100000000000000000000000000000000000000000000000006f05b59d3b200000000000000000000000000000000000000000000000000000000000000000320000000000000000000000000000000000000000000000000000000000000000200000000000000000000000000000000000000000000000000000000000000080000000000000000000000000000000000000000000000000000000000000000000000000000000000000000000000000000000000000000000000000000000000000000000000000000000000000000000000000000000000000000000000010000000000000000000000000000000000000000000000000000000000000bb80000000000000000000000000000000000000000000000000000000077359400",
        "nonce": "0x20f",
        "chainId": "0x515"
      },
      "additionalContracts": [],
      "isFixedGasLimit": false
    }
  ],
  "receipts": [
    {
      "status": "0x1",
      "cumulativeGasUsed": "0x2f109",
      "logs": [
        {
          "address": "0x30f358cb200bc849f220ee0caa9a1b2f44c0a7d6",
          "topics": [
            "0xbe23aa01ab7f1a0e9a5274dfb4eda009d0ac96e8b8a1f3923b19df92db27dd00",
            "0x0000000000000000000000000000000000000000000000000000000000000515"
          ],
          "data": "0x0000000000000000000000000000000000000000000000000000000000000002",
          "blockHash": "0x2104ff9ab38fad1c814db9172b8685f58a51e33797731a2e886d205ca6934fc2",
          "blockNumber": "0x2c2ef6c",
          "blockTimestamp": "0x69b09cb8",
          "transactionHash": "0xfbc41d429004974a8f352127acce42c107ebbae42a42abf553694dbfa6a16806",
          "transactionIndex": "0x3",
          "logIndex": "0x1",
          "removed": false
        }
      ],
      "logsBloom": "0x00000000000000000000000000000000000000000100000000000000000000000000000000000000000000001000000000000000000000000000000000000000000000000000000000000000000000000000000000000000000200000000000000000000100000000000008000000000000020000000000000000000000000000800000000400000000000000080000000000000000000000000000000000000000000000000000000000000000000000000000000000000000000000000000000000000000000000000000000000000000000000000000000000000000000000000000000000000000000000000000000000000000000000000000000000000",
      "type": "0x2",
      "transactionHash": "0xfbc41d429004974a8f352127acce42c107ebbae42a42abf553694dbfa6a16806",
      "transactionIndex": "0x3",
      "blockHash": "0x2104ff9ab38fad1c814db9172b8685f58a51e33797731a2e886d205ca6934fc2",
      "blockNumber": "0x2c2ef6c",
      "gasUsed": "0x7711",
      "effectiveGasPrice": "0x7a121",
      "blobGasUsed": "0x9c40",
      "from": "0x4b992f2fbf714c0fcbb23bac5130ace48cad00cd",
      "to": "0x30f358cb200bc849f220ee0caa9a1b2f44c0a7d6",
      "contractAddress": null,
      "daFootprintGasScalar": "0x190",
      "l1BaseFeeScalar": "0x7d0",
      "l1BlobBaseFee": "0x1",
      "l1BlobBaseFeeScalar": "0xdbba0",
      "l1Fee": "0x76",
      "l1GasPrice": "0x9",
      "l1GasUsed": "0x640"
    },
    {
      "status": "0x1",
      "cumulativeGasUsed": "0x39c87",
      "logs": [
        {
          "address": "0x30f358cb200bc849f220ee0caa9a1b2f44c0a7d6",
          "topics": [
            "0xa9b54d9d87badf20ec514053367be571dfa44e060aa1042295c3803d35faf113",
            "0x0000000000000000000000000000000000000000000000000000000000000515",
            "0x3c11539b2cfd09845c329a5208ce621bb3d88551027cbb62efe4daeb8bf88fc8"
          ],
          "data": "0xc0832836a588898a9c4f5483b22a70a6d8b016fa2156338d846339dc2064b4fb",
          "blockHash": "0x2104ff9ab38fad1c814db9172b8685f58a51e33797731a2e886d205ca6934fc2",
          "blockNumber": "0x2c2ef6c",
          "blockTimestamp": "0x69b09cb8",
          "transactionHash": "0x81a51c0ad44d502991ac181ff71718a1f2a367b7f15eac8a69b86716fa8b43ec",
          "transactionIndex": "0x4",
          "logIndex": "0x2",
          "removed": false
        }
      ],
      "logsBloom": "0x00000000000008000000000000000000000000000100000000004000000000000000000040000000000000000000000000000000000000000000000000000000000000000000000000000000000000000000000000000000000200000000000000000000000000000000008000000000000020000000000000000000000000000800000000000000000000000080000000000000000000000000000000000000000000000000000000000000000000000000000000000000080000000000000000000000000000000000000000000000000000000000000000000000000000000000000000000000000000000000400000000000100000000000000000000000",
      "type": "0x2",
      "transactionHash": "0x81a51c0ad44d502991ac181ff71718a1f2a367b7f15eac8a69b86716fa8b43ec",
      "transactionIndex": "0x4",
      "blockHash": "0x2104ff9ab38fad1c814db9172b8685f58a51e33797731a2e886d205ca6934fc2",
      "blockNumber": "0x2c2ef6c",
      "gasUsed": "0xab7e",
      "effectiveGasPrice": "0x7a121",
      "blobGasUsed": "0xe5b0",
      "from": "0x4b992f2fbf714c0fcbb23bac5130ace48cad00cd",
      "to": "0x30f358cb200bc849f220ee0caa9a1b2f44c0a7d6",
      "contractAddress": null,
      "daFootprintGasScalar": "0x190",
      "l1BaseFeeScalar": "0x7d0",
      "l1BlobBaseFee": "0x1",
      "l1BlobBaseFeeScalar": "0xdbba0",
      "l1Fee": "0xae",
      "l1GasPrice": "0x9",
      "l1GasUsed": "0x934"
    }
  ],
  "libraries": [],
  "pending": [],
  "returns": {},
  "timestamp": 1773182137082,
  "chain": 1301,
  "commit": "257ca41"
}