{
  "transactions": [
    {
      "hash": "0xe748690a00204a92a0551ad75dace6da4cb3c5bfec2d46e5aae9b898f947192b",
      "transactionType": "CALL",
      "contractName": null,
      "contractAddress": "0x30f358cb200bc849f220ee0caa9a1b2f44c0a7d6",
      "function": "setChainProfile(uint256,uint8)",
      "arguments": [
        "1301",
        "3"
      ],
      "transaction": {
        "from": "0x4b992f2fbf714c0fcbb23bac5130ace48cad00cd",
        "to": "0x30f358cb200bc849f220ee0caa9a1b2f44c0a7d6",
        "gas": "0xae22",
        "value": "0x0",
        "input": "0x9342178f00000000000000000000000000000000000000000000000000000000000005150000000000000000000000000000000000000000000000000000000000000003",
        "nonce": "0x210",
        "chainId": "0x515"
      },
      "additionalContracts": [],
      "isFixedGasLimit": false
    },
    {
      "hash": "0x6a07bb115d46d85561b39233727e5157fab2a55cb0fa423d69c27581729c7b6e",
      "transactionType": "CALL",
      "contractName": null,
      "contractAddress": "0x30f358cb200bc849f220ee0caa9a1b2f44c0a7d6",
      "function": "setPoolPolicy(uint256,bytes32,(bool,uint128,uint24,uint32,uint16,bool,bool,bool,uint24,uint64))",
      "arguments": [
        "1301",
        "0x3c11539b2cfd09845c329a5208ce621bb3d88551027cbb62efe4daeb8bf88fc8",
        "(true, 1000000000000000000, 1500, 1, 12, true, false, true, 3500, 1000000000)"
      ],
      "transaction": {
        "from": "0x4b992f2fbf714c0fcbb23bac5130ace48cad00cd",
        "to": "0x30f358cb200bc849f220ee0caa9a1b2f44c0a7d6",
        "gas": "0xfadf",
        "value": "0x0",
        "input": "0xd153d3cd00000000000000000000000000000000000000000000000000000000000005153c11539b2cfd09845c329a5208ce621bb3d88551027cbb62efe4daeb8bf88fc800000000000000000000000000000000000000000000000000000000000000010000000000000000000000000000000000000000000000000de0b6b3a764000000000000000000000000000000000000000000000000000000000000000005dc0000000000000000000000000000000000000000000000000000000000000001000000000000000000000000000000000000000000000000000000000000000c0000000000000000000000000000000000000000000000000000000000000001000000000000000000000000000000000000000000000000000000000000000000000000000000000000000000000000000000000000000000000000000000010000000000000000000000000000000000000000000000000000000000000dac000000000000000000000000000000000000000000000000000000003b9aca00",
        "nonce": "0x211",
        "chainId": "0x515"
      },
      "additionalContracts": [],
      "isFixedGasLimit": false
    }
  ],
  "receipts": [
    {
      "status": "0x1",
      "cumulativeGasUsed": "0x4613b",
      "logs": [
        {
          "address": "0x30f358cb200bc849f220ee0caa9a1b2f44c0a7d6",
          "topics": [
            "0xbe23aa01ab7f1a0e9a5274dfb4eda009d0ac96e8b8a1f3923b19df92db27dd00",
            "0x0000000000000000000000000000000000000000000000000000000000000515"
          ],
          "data": "0x0000000000000000000000000000000000000000000000000000000000000003",
          "blockHash": "0x9b34b6ed2978382ce3e80bf91c94566439867a3aa31e1248a222fb0ab126a3f4",
          "blockNumber": "0x2c2ef79",
          "blockTimestamp": "0x69b09cc5",
          "transactionHash": "0xe748690a00204a92a0551ad75dace6da4cb3c5bfec2d46e5aae9b898f947192b",
          "transactionIndex": "0x4",
          "logIndex": "0x2",
          "removed": false
        }
      ],
      "logsBloom": "0x00000000000000000000000000000000000000000100000000000000000000000000000000000000000000001000000000000000000000000000000000000000000000000000000000000000000000000000000000000000000200000000000000000000100000000000008000000000000020000000000000000000000000000800000000400000000000000080000000000000000000000000000000000000000000000000000000000000000000000000000000000000000000000000000000000000000000000000000000000000000000000000000000000000000000000000000000000000000000000000000000000000000000000000000000000000",
      "type": "0x2",
      "transactionHash": "0xe748690a00204a92a0551ad75dace6da4cb3c5bfec2d46e5aae9b898f947192b",
      "transactionIndex": "0x4",
      "blockHash": "0x9b34b6ed2978382ce3e80bf91c94566439867a3aa31e1248a222fb0ab126a3f4",
      "blockNumber": "0x2c2ef79",
      "gasUsed": "0x7711",
      "effectiveGasPrice": "0x7a121",
      "blobGasUsed": "0x9c40",
      "from": "0x4b992f2fbf714c0fcbb23bac5130ace48cad00cd",
      "to": "0x30f358cb200bc849f220ee0caa9a1b2f44c0a7d6",
      "contractAddress": null,
      "daFootprintGasScalar": "0x190",
      "l1BaseFeeScalar": "0x7d0",
      "l1BlobBaseFee": "0x1",
      "l1BlobBaseFeeScalar": "0xdbba0",
      "l1Fee": "0x76",
      "l1GasPrice": "0x9",
      "l1GasUsed": "0x640"
    },
    {
      "status": "0x1",
      "cumulativeGasUsed": "0x50cc5",
      "logs": [
        {
          "address": "0x30f358cb200bc849f220ee0caa9a1b2f44c0a7d6",
          "topics": [
            "0xa9b54d9d87badf20ec514053367be571dfa44e060aa1042295c3803d35faf113",
            "0x0000000000000000000000000000000000000000000000000000000000000515",
            "0x3c11539b2cfd09845c329a5208ce621bb3d88551027cbb62efe4daeb8bf88fc8"
          ],
          "data": "0xc3cccce9ae3a1e544149bcef2627001b18ea3f11c3c0e44b5408b933c76cf7cf",
          "blockHash": "0x9b34b6ed2978382ce3e80bf91c94566439867a3aa31e1248a222fb0ab126a3f4",
          "blockNumber": "0x2c2ef79",
          "blockTimestamp": "0x69b09cc5",
          "transactionHash": "0x6a07bb115d46d85561b39233727e5157fab2a55cb0fa423d69c27581729c7b6e",
          "transactionIndex": "0x5",
          "logIndex": "0x3",
          "removed": false
        }
      ],
      "logsBloom": "0x00000000000008000000000000000000000000000100000000004000000000000000000040000000000000000000000000000000000000000000000000000000000000000000000000000000000000000000000000000000000200000000000000000000000000000000008000000000000020000000000000000000000000000800000000000000000000000080000000000000000000000000000000000000000000000000000000000000000000000000000000000000080000000000000000000000000000000000000000000000000000000000000000000000000000000000000000000000000000000000400000000000100000000000000000000000",
      "type": "0x2",
      "transactionHash": "0x6a07bb115d46d85561b39233727e5157fab2a55cb0fa423d69c27581729c7b6e",
      "transactionIndex": "0x5",
      "blockHash": "0x9b34b6ed2978382ce3e80bf91c94566439867a3aa31e1248a222fb0ab126a3f4",
      "blockNumber": "0x2c2ef79",
      "gasUsed": "0xab8a",
      "effectiveGasPrice": "0x7a121",
      "blobGasUsed": "0xe290",
      "from": "0x4b992f2fbf714c0fcbb23bac5130ace48cad00cd",
      "to": "0x30f358cb200bc849f220ee0caa9a1b2f44c0a7d6",
      "contractAddress": null,
      "daFootprintGasScalar": "0x190",
      "l1BaseFeeScalar": "0x7d0",
      "l1BlobBaseFee": "0x1",
      "l1BlobBaseFeeScalar": "0xdbba0",
      "l1Fee": "0xad",
      "l1GasPrice": "0x9",
      "l1GasUsed": "0x91a"
    }
  ],
  "libraries": [],
  "pending": [],
  "returns": {},
  "timestamp": 1773182150566,
  "chain": 1301,
  "commit": "257ca41"
}